{
  "_format": "hh-sol-artifact-1",
  "contractName": "BountyEscrow",
  "sourceName": "contracts/BountyEscrow.sol",
  "abi": [
    {
      "inputs": [
        {
          "internalType": "string",
          "name": "_programName",
          "type": "string"
        }
      ],
      "stateMutability": "payable",
      "type": "constructor"
    },
    {
      "anonymous": false,
      "inputs": [],
      "name": "BountyClosed",
      "type": "event"
    },
    {
      "anonymous": false,
      "inputs": [
        {
          "indexed": true,
          "internalType": "address",
          "name": "org",
          "type": "address"
        },
        {
          "indexed": false,
          "internalType": "uint256",
          "name": "amount",
          "type": "uint256"
        }
      ],
      "name": "BountyDeposited",
      "type": "event"
    },
    {
      "anonymous": false,
      "inputs": [
        {
          "indexed": true,
          "internalType": "address",
          "name": "researcher",
          "type": "address"
        },
        {
          "indexed": false,
          "internalType": "uint256",
          "name": "amount",
          "type": "uint256"
        }
      ],
      "name": "BountyPaid",
      "type": "event"
    },
    {
      "inputs": [
        {
          "internalType": "address payable",
          "name": "researcher",
          "type": "address"
        },
        {
          "internalType": "uint256",
          "name": "amount",
          "type": "uint256"
        }
      ],
      "name": "approveAndPay",
      "outputs": [],
      "stateMutability": "nonpayable",
      "type": "function"
    },
    {
      "inputs": [],
      "name": "bountyAmount",
      "outputs": [
        {
          "internalType": "uint256",
          "name": "",
          "type": "uint256"
        }
      ],
      "stateMutability": "view",
      "type": "function"
    },
    {
      "inputs": [],
      "name": "closeBounty",
      "outputs": [],
      "stateMutability": "nonpayable",
      "type": "function"
    },
    {
      "inputs": [],
      "name": "deposit",
      "outputs": [],
      "stateMutability": "payable",
      "type": "function"
    },
    {
      "inputs": [],
      "name": "isActive",
      "outputs": [
        {
          "internalType": "bool",
          "name": "",
          "type": "bool"
        }
      ],
      "stateMutability": "view",
      "type": "function"
    },
    {
      "inputs": [],
      "name": "organization",
      "outputs": [
        {
          "internalType": "address",
          "name": "",
          "type": "address"
        }
      ],
      "stateMutability": "view",
      "type": "function"
    },
    {
      "inputs": [],
      "name": "programName",
      "outputs": [
        {
          "internalType": "string",
          "name": "",
          "type": "string"
        }
      ],
      "stateMutability": "view",
      "type": "function"
    }
  ],
  "bytecode": "0x6080604052604051620013d4380380620013d4833981810160405281019062000029919062000292565b336000806101000a81548173ffffffffffffffffffffffffffffffffffffffff021916908373ffffffffffffffffffffffffffffffffffffffff160217905550346001819055506001600260006101000a81548160ff02191690831515021790555080600390816200009c91906200052e565b506000341115620000f8573373ffffffffffffffffffffffffffffffffffffffff167ffd659ad05094196dc326624351738485027a10bfdda3d2200e7334a5457c65a934604051620000ef919062000626565b60405180910390a25b5062000643565b6000604051905090565b600080fd5b600080fd5b600080fd5b600080fd5b6000601f19601f8301169050919050565b7f4e487b7100000000000000000000000000000000000000000000000000000000600052604160045260246000fd5b62000168826200011d565b810181811067ffffffffffffffff821117156200018a57620001896200012e565b5b80604052505050565b60006200019f620000ff565b9050620001ad82826200015d565b919050565b600067ffffffffffffffff821115620001d057620001cf6200012e565b5b620001db826200011d565b9050602081019050919050565b60005b8381101562000208578082015181840152602081019050620001eb565b60008484015250505050565b60006200022b6200022584620001b2565b62000193565b9050828152602081018484840111156200024a576200024962000118565b5b62000257848285620001e8565b509392505050565b600082601f83011262000277576200027662000113565b5b81516200028984826020860162000214565b91505092915050565b600060208284031215620002ab57620002aa62000109565b5b600082015167ffffffffffffffff811115620002cc57620002cb6200010e565b5b620002da848285016200025f565b91505092915050565b600081519050919050565b7f4e487b7100000000000000000000000000000000000000000000000000000000600052602260045260246000fd5b600060028204905060018216806200033657607f821691505b6020821081036200034c576200034b620002ee565b5b50919050565b60008190508160005260206000209050919050565b60006020601f8301049050919050565b600082821b905092915050565b600060088302620003b67fffffffffffffffffffffffffffffffffffffffffffffffffffffffffffffffff8262000377565b620003c2868362000377565b95508019841693508086168417925050509392505050565b6000819050919050565b6000819050919050565b60006200040f620004096200040384620003da565b620003e4565b620003da565b9050919050565b6000819050919050565b6200042b83620003ee565b620004436200043a8262000416565b84845462000384565b825550505050565b600090565b6200045a6200044b565b6200046781848462000420565b505050565b5b818110156200048f576200048360008262000450565b6001810190506200046d565b5050565b601f821115620004de57620004a88162000352565b620004b38462000367565b81016020851015620004c3578190505b620004db620004d28562000367565b8301826200046c565b50505b505050565b600082821c905092915050565b60006200050360001984600802620004e3565b1980831691505092915050565b60006200051e8383620004f0565b9150826002028217905092915050565b6200053982620002e3565b67ffffffffffffffff8111156200055557620005546200012e565b5b6200056182546200031d565b6200056e82828562000493565b600060209050601f831160018114620005a6576000841562000591578287015190505b6200059d858262000510565b8655506200060d565b601f198416620005b68662000352565b60005b82811015620005e057848901518255600182019150602085019450602081019050620005b9565b86831015620006005784890151620005fc601f891682620004f0565b8355505b6001600288020188555050505b505050505050565b6200062081620003da565b82525050565b60006020820190506200063d600083018462000615565b92915050565b610d8180620006536000396000f3fe6080604052600436106100705760003560e01c8063bd120a121161004e578063bd120a12146100e2578063ccd331bf1461010b578063d0e30db014610136578063de6b6c4f1461014057610070565b806322f3e2d41461007557806323bd4d7a146100a0578063280893ee146100cb575b600080fd5b34801561008157600080fd5b5061008a61016b565b604051610097919061079a565b60405180910390f35b3480156100ac57600080fd5b506100b561017e565b6040516100c291906107f6565b60405180910390f35b3480156100d757600080fd5b506100e06101a2565b005b3480156100ee57600080fd5b506101096004803603810190610104919061088a565b61034b565b005b34801561011757600080fd5b50610120610562565b60405161012d91906108d9565b60405180910390f35b61013e610568565b005b34801561014c57600080fd5b506101556106f1565b6040516101629190610984565b60405180910390f35b600260009054906101000a900460ff1681565b60008054906101000a900473ffffffffffffffffffffffffffffffffffffffff1681565b60008054906101000a900473ffffffffffffffffffffffffffffffffffffffff1673ffffffffffffffffffffffffffffffffffffffff163373ffffffffffffffffffffffffffffffffffffffff1614610230576040517f08c379a000000000000000000000000000000000000000000000000000000000815260040161022790610a18565b60405180910390fd5b600260009054906101000a900460ff1661027f576040517f08c379a000000000000000000000000000000000000000000000000000000000815260040161027690610a84565b60405180910390fd5b6000600260006101000a81548160ff0219169083151502179055506000600154111561031d5760006001549050600060018190555060008054906101000a900473ffffffffffffffffffffffffffffffffffffffff1673ffffffffffffffffffffffffffffffffffffffff166108fc829081150290604051600060405180830381858888f1935050505015801561031a573d6000803e3d6000fd5b50505b7f88bb2354182a6ca67e832d28cdcaa701adc5375c4255833b21052d1bb619a1a060405160405180910390a1565b60008054906101000a900473ffffffffffffffffffffffffffffffffffffffff1673ffffffffffffffffffffffffffffffffffffffff163373ffffffffffffffffffffffffffffffffffffffff16146103d9576040517f08c379a00000000000000000000000000000000000000000000000000000000081526004016103d090610a18565b60405180910390fd5b600260009054906101000a900460ff16610428576040517f08c379a000000000000000000000000000000000000000000000000000000000815260040161041f90610af0565b60405180910390fd5b60015481111561046d576040517f08c379a000000000000000000000000000000000000000000000000000000000815260040161046490610b5c565b60405180910390fd5b600081116104b0576040517f08c379a00000000000000000000000000000000000000000000000000000000081526004016104a790610bc8565b60405180910390fd5b80600160008282546104c29190610c17565b925050819055508173ffffffffffffffffffffffffffffffffffffffff166108fc829081150290604051600060405180830381858888f1935050505015801561050f573d6000803e3d6000fd5b508173ffffffffffffffffffffffffffffffffffffffff167f31dd4c1bc893bd53887b59c36c1a1b9f60960fa64c231ad0cd3603a1914bda358260405161055691906108d9565b60405180910390a25050565b60015481565b60008054906101000a900473ffffffffffffffffffffffffffffffffffffffff1673ffffffffffffffffffffffffffffffffffffffff163373ffffffffffffffffffffffffffffffffffffffff16146105f6576040517f08c379a00000000000000000000000000000000000000000000000000000000081526004016105ed90610a18565b60405180910390fd5b600260009054906101000a900460ff16610645576040517f08c379a000000000000000000000000000000000000000000000000000000000815260040161063c90610af0565b60405180910390fd5b60003411610688576040517f08c379a000000000000000000000000000000000000000000000000000000000815260040161067f90610c97565b60405180910390fd5b346001600082825461069a9190610cb7565b925050819055503373ffffffffffffffffffffffffffffffffffffffff167ffd659ad05094196dc326624351738485027a10bfdda3d2200e7334a5457c65a9346040516106e791906108d9565b60405180910390a2565b600380546106fe90610d1a565b80601f016020809104026020016040519081016040528092919081815260200182805461072a90610d1a565b80156107775780601f1061074c57610100808354040283529160200191610777565b820191906000526020600020905b81548152906001019060200180831161075a57829003601f168201915b505050505081565b60008115159050919050565b6107948161077f565b82525050565b60006020820190506107af600083018461078b565b92915050565b600073ffffffffffffffffffffffffffffffffffffffff82169050919050565b60006107e0826107b5565b9050919050565b6107f0816107d5565b82525050565b600060208201905061080b60008301846107e7565b92915050565b600080fd5b6000610821826107b5565b9050919050565b61083181610816565b811461083c57600080fd5b50565b60008135905061084e81610828565b92915050565b6000819050919050565b61086781610854565b811461087257600080fd5b50565b6000813590506108848161085e565b92915050565b600080604083850312156108a1576108a0610811565b5b60006108af8582860161083f565b92505060206108c085828601610875565b9150509250929050565b6108d381610854565b82525050565b60006020820190506108ee60008301846108ca565b92915050565b600081519050919050565b600082825260208201905092915050565b60005b8381101561092e578082015181840152602081019050610913565b60008484015250505050565b6000601f19601f8301169050919050565b6000610956826108f4565b61096081856108ff565b9350610970818560208601610910565b6109798161093a565b840191505092915050565b6000602082019050818103600083015261099e818461094b565b905092915050565b7f4f6e6c79204f7267616e697a6174696f6e2063616e20706572666f726d20746860008201527f697320616374696f6e0000000000000000000000000000000000000000000000602082015250565b6000610a026029836108ff565b9150610a0d826109a6565b604082019050919050565b60006020820190508181036000830152610a31816109f5565b9050919050565b7f426f756e747920697320616c726561647920636c6f7365640000000000000000600082015250565b6000610a6e6018836108ff565b9150610a7982610a38565b602082019050919050565b60006020820190508181036000830152610a9d81610a61565b9050919050565b7f426f756e747920697320636c6f73656400000000000000000000000000000000600082015250565b6000610ada6010836108ff565b9150610ae582610aa4565b602082019050919050565b60006020820190508181036000830152610b0981610acd565b9050919050565b7f496e73756666696369656e742066756e647320696e20657363726f7700000000600082015250565b6000610b46601c836108ff565b9150610b5182610b10565b602082019050919050565b60006020820190508181036000830152610b7581610b39565b9050919050565b7f5061796f757420616d6f756e74206d757374206265203e203000000000000000600082015250565b6000610bb26019836108ff565b9150610bbd82610b7c565b602082019050919050565b60006020820190508181036000830152610be181610ba5565b9050919050565b7f4e487b7100000000000000000000000000000000000000000000000000000000600052601160045260246000fd5b6000610c2282610854565b9150610c2d83610854565b9250828203905081811115610c4557610c44610be8565b5b92915050565b7f4465706f73697420616d6f756e74206d757374206265203e2030000000000000600082015250565b6000610c81601a836108ff565b9150610c8c82610c4b565b602082019050919050565b60006020820190508181036000830152610cb081610c74565b9050919050565b6000610cc282610854565b9150610ccd83610854565b9250828201905080821115610ce557610ce4610be8565b5b92915050565b7f4e487b7100000000000000000000000000000000000000000000000000000000600052602260045260246000fd5b60006002820490506001821680610d3257607f821691505b602082108103610d4557610d44610ceb565b5b5091905056fea2646970667358221220436cae39841a279d309f1e216e15905c358521de5564f5e4b777672ca746501264736f6c63430008130033",
  "linkReferences": {},
  "deployedLinkReferences": {}
}